:1000000014C01BC01AC019C018C017C016C015C034
:1000100014C013C012C011C010C00FC00EC00DC05C
:100020000CC00BC00AC009C008C011241FBECFE518
:10003000D1E0DEBFCDBF7ED096C0E2CF18BA2FE3AD
:1000400032E48FE0215030408040E1F700C00000F2
:100050008FE088BB9FE322E43FE091502040304096
:10006000E1F700C0000018BA9FE322E43FE091509E
:1000700020403040E1F700C0000088BB8FE392E4ED
:100080002FE0815090402040E1F700C0000018BAF6
:100090003FEB8CE595E1315080409040E1F700C0A6
:1000A0000000089518BA2FE332E48FE02150304069
:1000B0008040E1F700C000008FE088BB9FE322E4AE
:1000C0003FE0915020403040E1F700C0000018BAF6
:1000D0009FE322E43FE0915020403040E1F700C030
:1000E000000088BB9FE322E43FE091502040304075
:1000F000E1F700C0000018BA9FE322E43FE091500E
:1001000020403040E1F700C0000088BB8FE392E45C
:100110002FE0815090402040E1F700C0000018BA65
:100120003FE382E49FE0315080409040E1F700C01F
:10013000000008958BB780648BBF8BB780688BBF3E
:100140008BB780618BBF289A299A8FE087BB76DFB7
:100150002FE784E89EE1215080409040E1F700C005
:0A0160000000A0DFF4CFF894FFCFF9
:00000001FF
