:1000000014C026C025C024C023C022C021C020C0E7
:100010001FC01EC01DC01CC01BC01AC019C018C004
:1000200017C016C015C014C013C011241FBECFE5E1
:10003000D1E0DEBFCDBF10E0A0E6B0E0E4E4F2E046
:1000400002C005900D92A236B107D9F7CDD0F8C005
:10005000D7CF84E088BB2FE382E49FE0215080402B
:100060009040E1F700C0000018BA089588E088BB0E
:100070002FE382E49FE0215080409040E1F700C0F0
:10008000000018BA089581E088BB2FE382E49FE066
:10009000215080409040E1F700C0000018BA089558
:1000A00082E088BB2FE382E49FE0215080409040B3
:1000B000E1F700C0000018BA0895982F062E01C07D
:1000C000990F0A94EAF7719561957109677077271E
:1000D00001C086956A95EAF7892B0895E0E6F0E07D
:1000E00080813181982F9327282F2295220F211D5F
:1000F000220F211D2927492F440F24272083929561
:1001000090FB979597F99183830F0895E7DF8430EB
:10011000E8F790E0089518BA2FE332E48FE0215019
:1001200030408040E1F700C000008FE088BB9FE3D3
:1001300022E43FE0915020403040E1F700C0000051
:1001400018BA9FE322E43FE0915020403040E1F7AD
:1001500000C0000088BB089518BA2FE332E48FE096
:10016000215030408040E1F700C000008FE088BBA4
:100170009FE322E43FE0915020403040E1F700C08F
:10018000000018BA9FE322E43FE091502040304045
:10019000E1F700C0000088BB9FE322E43FE09150FC
:1001A00020403040E1F700C0000018BA9FE322E48D
:1001B0003FE0915020403040E1F700C0000088BB94
:1001C0008FE392E42FE0815090402040E1F700C09F
:1001D000000018BA3FE382E49FE031508040904035
:1001E000E1F700C0000008958BB780648BBF8BB728
:1001F00080688BBF8BB780618BBF289A299A8FE06C
:1002000087BB89DF2FE784E89EE121508040904042
:10021000E1F700C00000A0DF2FE784E89EE1215055
:1002200080409040E1F700C000002DDF2FE784E818
:100230009EE1215080409040E1F700C00000E1CFF6
:04024000F894FFCF60
:0202440000A315
:00000001FF
