:1000000014C069C17CC12CC02BC02AC029C028C023
:1000100027C026C025C024C023C022C021C020C0C4
:100020001FC01EC01DC0A5C17EC111241FBECFE5CB
:10003000D1E0DEBFCDBF10E0A0E6B0E0E2E3F6E045
:1000400002C005900D92A436B107D9F720E0A4E6CE
:10005000B0E001C01D92AC3AB207E1F7B0D1E7C2FF
:10006000CFCF84E088BB2FEF89E698E12150804014
:100070009040E1F700C0000018BA089588E088BBFE
:100080002FEF89E698E1215080409040E1F700C0D1
:10009000000018BA089581E088BB2FEF89E698E147
:1000A000215080409040E1F700C0000018BA089548
:1000B00082E088BB2FEF89E698E121508040904094
:1000C000E1F700C0000018BA0895982F062E01C06D
:1000D000990F0A94EAF7719561957109677077270E
:1000E00001C086956A95EAF7892B0895E0E6F0E06D
:1000F00080813181982F9327282F2295220F211D4F
:10010000220F211D2927492F440F24272083929550
:1001100090FB979597F99183830F0895E7DF8430DB
:10012000E8F790E0089518BA2FEF39E688E12150FA
:1001300030408040E1F700C000008FE088BB9FEFB7
:1001400029E638E1915020403040E1F700C000003E
:1001500018BA9FEF29E638E1915020403040E1F78E
:1001600000C0000088BB8FEF99E628E181509040E5
:100170002040E1F700C0000018BA089518BA2FEF28
:1001800039E688E1215030408040E1F700C00000AE
:100190008FE088BB9FEF29E638E191502040304046
:1001A000E1F700C0000018BA9FEF29E638E191504E
:1001B00020403040E1F700C0000088BB9FEF29E6F7
:1001C00038E1915020403040E1F700C0000018BAFB
:1001D0009FEF29E638E1915020403040E1F700C020
:1001E000000088BB8FEF99E628E1815090402040C5
:1001F000E1F700C0000018BA3FEF89E698E13150FE
:1002000080409040E1F700C00000089518BA2FEF39
:1002100089E698E1215080409040E1F700C000005D
:100220008FE088BB2FEF89E698E121508040904015
:10023000E1F700C0000018BA08950F931F93CF9301
:10024000DF938C01C0E0D0E0809162009091630068
:10025000C817D907DCF5F801819191918F010097BA
:1002600059F4FFEF29E688E1F15020408040E1F7A2
:1002700000C0000010DF28C08130910559F49FEFC5
:10028000E9E6F8E19150E040F040E1F700C00000FD
:100290000FDF1AC08230910559F42FEF89E698E1FB
:1002A000215080409040E1F700C00000DADE0CC031
:1002B000039751F4EFEFF9E628E1E150F0402040D8
:1002C000E1F700C00000DADE2196BECFDF91CF91CA
:1002D0001F910F9108951F920F920FB60F92112444
:1002E0008F939F9381E090E09093A7008093A60066
:1002F0009F918F910F900FBE0F901F9018951F9296
:100300000F920FB60F9211248F939F9381E090E08C
:100310009093A5008093A4009F918F910F900FBEA2
:100320000F901F9018951F920F920FB60F921124E5
:100330008F939F9380919C0090919D00009739F43A
:1003400081E090E090939D0080939C000BC08130F1
:10035000910541F49093AB008093AA0010929D0008
:1003600010929C009F918F910F900FBE0F901F9045
:1003700018951F920F920FB60F9211248F939F938F
:1003800080919E0090919F00009739F481E090E069
:1003900090939F0080939E000BC08130910541F4A3
:1003A0009093A9008093A80010929F0010929E0045
:1003B0009F918F910F900FBE0F901F9018958BB744
:1003C00080648BBF8BB780688BBF8BB780618BBF1E
:1003D0008BB788608BBF209A289A78948FE087BB70
:1003E00080E074E0A72EB12CEE24E394F12CC2E05F
:1003F000D0E003E010E08111FECFE091AA00F0917F
:10040000AB006091A8007091A9004091A6005091A6
:10041000A7002091A4003091A50091E0E130F10502
:1004200009F090E081E06130710509F080E0982BDF
:1004300081E04130510509F080E0892B19F4213029
:10044000310581F5319711F426DE0BC0672B11F0D1
:100450002FDE07C0452B11F004DE03C0232B09F06B
:100460000DDE1092AB001092AA001092A90010921B
:10047000A8001092A7001092A6001092A50010925A
:10048000A4001092810010928000F0928300E0920C
:100490008200D0938500C09384001093870000935E
:1004A00086001CC018BAA9CFC0906200D09063002B
:1004B00035DEF601EE0FFF1FE058FF4F918380837A
:1004C0008091620090916300803191050CF0AAC088
:1004D0000196909363008093620098DE80E890E03C
:1004E000ACDE2091A2003091A30080916200909137
:1004F00063002817390771F41092A3001092A2002C
:10050000AC01E0E8F0E0A4E6B0E080E090E020E0BC
:1005100030E06FC08091A6009091A700019789F408
:100520001092A7001092A600B6DD8091A2009091D3
:10053000A300FC01EE0FFF1FEC59FF4F1182108248
:1005400047C0C090A400D090A50021E0C216D104FD
:1005500089F41092A5001092A400AADD8091A20057
:100560009091A300FC01EE0FFF1FEC59FF4FD182C9
:10057000C0822EC08091AA009091AB00019789F4AF
:100580001092AB001092AA006CDD8091A2009091B5
:10059000A300FC01EE0FFF1FEC59FF4FD183C08376
:1005A00017C08091A8009091A900019709F099CFF8
:1005B0001092A9001092A80061DD8091A200909194
:1005C000A300FC01EE0FFF1FEC59FF4F11830083C6
:1005D00001969093A3008093A20083CFC190D19005
:1005E0006D917D91C616D70611F081E090E02F5FE6
:1005F0003F4F2417350794F39093A1008093A000F8
:10060000892B09F451CF1092A1001092A000B6DD01
:100610008FEB96EC2DE2815090402040E1F700C036
:100620000000EBCEB0926300A092620056CFF89427
:02063000FFCFFA
:0406320000A304001D
:00000001FF
