:1000000014C055C168C12CC02BC02AC029C028C04B
:1000100027C026C025C024C023C022C021C020C0C4
:100020001FC01EC01DC07FC16AC111241FBECFE505
:10003000D1E0DEBFCDBF10E0A0E6B0E0E4EAF5E03D
:1000400002C005900D92A436B107D9F720E0A4E6CE
:10005000B0E001C01D92A83AB207E1F778D1A0C282
:10006000CFCF84E088BB2FE382E49FE02150804023
:100070009040E1F700C0000018BA089588E088BBFE
:100080002FE382E49FE0215080409040E1F700C0E0
:10009000000018BA089581E088BB2FE382E49FE056
:1000A000215080409040E1F700C0000018BA089548
:1000B00082E088BB2FE382E49FE0215080409040A3
:1000C000E1F700C0000018BA0895982F062E01C06D
:1000D000990F0A94EAF7719561957109677077270E
:1000E00001C086956A95EAF7892B0895E0E6F0E06D
:1000F00080813181982F9327282F2295220F211D4F
:10010000220F211D2927492F440F24272083929550
:1001100090FB979597F99183830F0895E7DF8430DB
:10012000E8F790E0089518BA2FE332E48FE0215009
:1001300030408040E1F700C000008FE088BB9FE3C3
:1001400022E43FE0915020403040E1F700C0000041
:1001500018BA9FE322E43FE0915020403040E1F79D
:1001600000C0000088BB089518BA2FE332E48FE086
:10017000215030408040E1F700C000008FE088BB94
:100180009FE322E43FE0915020403040E1F700C07F
:10019000000018BA9FE322E43FE091502040304035
:1001A000E1F700C0000088BB9FE322E43FE09150EC
:1001B00020403040E1F700C0000018BA9FE322E47D
:1001C0003FE0915020403040E1F700C0000088BB84
:1001D0008FE392E42FE0815090402040E1F700C08F
:1001E000000018BA3FE382E49FE031508040904025
:1001F000E1F700C00000089518BA2FE382E49FE001
:10020000215080409040E1F700C000008FE088BBA3
:1002100008950F931F93CF93DF938C01C0E0D0E03C
:100220008091620090916300C817D907DCF5F8014E
:10023000819191918F01009759F4FFE72AE186E0BF
:10024000F15020408040E1F700C0000024DF28C0CA
:100250008130910559F49FE7EAE1F6E09150E040E2
:10026000F040E1F700C0000023DF1AC082309105A2
:1002700059F42FE78AE196E0215080409040E1F761
:1002800000C00000EEDE0CC0039751F4EFE7FAE186
:1002900026E0E150F0402040E1F700C00000EEDE33
:1002A0002196BECFDF91CF911F910F9108951F929C
:1002B0000F920FB60F9211248F939F9381E090E0DD
:1002C0009093A3008093A2009F918F910F900FBEF7
:1002D0000F901F9018951F920F920FB60F92112436
:1002E0008F939F9381E090E09093A1008093A00072
:1002F0009F918F910F900FBE0F901F9018951F9296
:100300000F920FB60F9211248F939F9381E090E08C
:100310009093A7008093A6009F918F910F900FBE9E
:100320000F901F9018951F920F920FB60F921124E5
:100330008F939F9381E090E09093A5008093A40019
:100340009F918F910F900FBE0F901F9018958BB7B4
:1003500080648BBF8BB780688BBF8BB780618BBF8E
:100360008BB788608BBF209A289A78948FE087BBE0
:1003700080E004E010E073E0E72EF12CE2E0CE2E06
:10038000D12C8111FECF91E02091A6003091A700E1
:100390002130310509F090E081E02091A4003091F6
:1003A000A5002130310509F080E0982B81E02091F3
:1003B000A2003091A3002130310509F080E0892BA3
:1003C00031F48091A0009091A100019731F5ABDE4E
:1003D0001092A7001092A6001092A5001092A400FF
:1003E0001092A3001092A2001092A1001092A000FF
:1003F00095DE909381008093800090DE909383003F
:10040000809382008BDE909385008093840086DE4B
:1004100090938700809386001BC018BAB4CFC09118
:100420006200D09163007ADECC0FDD1FC058DF4F31
:100430009983888380916200909163008031910557
:100440000CF0A9C001969093630080936200D4DE03
:1004500080E890E0DEDE20919E0030919F00809148
:100460006200909163002817390771F410929F0081
:1004700010929E00AC01E0E8F0E0A4E6B0E080E07D
:1004800090E020E030E06EC08091A2009091A30047
:10049000019789F41092A3001092A200FCDD8091D4
:1004A0009E0090919F00FC01EE0FFF1FEC59FF4F43
:1004B0001182108246C0C091A000D091A100C1302D
:1004C000D10589F41092A1001092A000F1DD809175
:1004D0009E0090919F00FC01EE0FFF1FEC59FF4F13
:1004E000D183C0832EC08091A6009091A700019770
:1004F00089F41092A7001092A600B3DD80919E00AF
:1005000090919F00FC01EE0FFF1FEC59FF4FD1822D
:10051000C08217C08091A4009091A500019709F0B6
:100520009ACF1092A5001092A400A8DD80919E00A1
:1005300090919F00FC01EE0FFF1FEC59FF4FF182DD
:10054000E082019690939F0080939E0084CFC1919A
:10055000D1916D917D91C617D70711F081E090E0A0
:100560002F5F3F4F2417350794F390939D0080939E
:100570009C00892B09F453CF10929D0010929C008F
:10058000F3DD2FEB86EC9DE2215080409040E1F7B7
:1005900000C00000F8CE109363000093620057CFB4
:0405A000F894FFCFFD
:0405A40000A30400AC
:00000001FF
